:100000000C945A000C946C000C946C000C948C00B2
:100010000C946C000C946C000C946C000C946C00B0
:100020000C946C000C946C000C946C000C946C00A0
:100030000C946C000C946C000C946C000C946C0090
:100040000C946C000C9499000C946C000C946C0053
:100050000C946C000C946C000C946C000C946C0070
:100060000C946C000C946C000C946C000C946C0060
:100070000C946C000C946C000C946C000C946C0050
:100080000C946C000C946C000C946C000C946C0040
:100090000C946C000C946C000C946C000C946C0030
:1000A0000C946C000C946C000C946C000C946C0020
:1000B0000C946C0011241FBECFEFD8E0DEBFCDBF83
:1000C00021E0A0E0B1E001C01D92A434B207E1F745
:1000D0000E94D9000C94B5010C940000809141015C
:1000E0002091000190E0805C9F4F821B910960E4A9
:1000F00070E00E948D0108950E946E00882359F0DF
:10010000E091000181E08E0F80930001EF73F0E039
:10011000EF5FFE4F808108951F920F920FB60F92EE
:1001200011241A9B109243010F900FBE0F901F9045
:1001300018951F920F920FB60F9211242F933F9391
:100140004F935F936F937F938F939F93AF93BF93DF
:10015000CF93EF93FF9380914301843080F4CEB529
:100160000E946E00803459F0E091410181E08E0FD1
:1001700080934101EF73F0E0EF5FFE4FC083809109
:1001800043018F5F80934301809142018EBDFF91B7
:10019000EF91CF91BF91AF919F918F917F916F918F
:1001A0005F914F913F912F910F900FBE0F901F9035
:1001B00018957894699A519A689A529A549A539ACF
:1001C0003A9A219A209A509A559A569A21EA24BD31
:1001D00083E085BD17BC18BC91E8909380008093A4
:1001E0008100109289001092880031E23093B000B3
:1001F0008093B1001092B4005A9A2093900080939B
:100200009100109299001092980010929B00109209
:100210009A009093A0008093A1001092A9001092E0
:10022000A800249A239A259A229A80EC8CBD84E017
:1002300080936B0081E0809368000E946E008430A0
:10024000E0F30E947C00D82F809342010E947C0042
:10025000C82F0E947C00182F0E947C008FEF8D0F0A
:10026000873058F7812F8170D430A9F128F4D2302B
:10027000C1F0D33029F107C0D63009F44AC0D0F11B
:10028000D73009F448C02C2F30E03093A9002093D8
:10029000A800882319F08EB1826010C08EB18D7FC6
:1002A0000DC02C2F30E030939B0020939A008823C0
:1002B00019F08EB1816002C08EB18E7F8EB9BDCF34
:1002C000C093B400882319F08BB1806102C08BB158
:1002D0008F7E8BB9B2CF2C2F30E0309389002093E2
:1002E0008800882319F088B1846002C088B18B7FB0
:1002F00088B9A3CF2C2F30E0309399002093980039
:10030000882319F085B1816002C085B18E7F85B9DF
:1003100094CFC8BD92CFC7BD90CF97FB072E16F4E0
:10032000009407D077FD09D00E94A10107FC05D0F9
:100330003EF4909581959F4F0895709561957F4FFC
:100340000895AA1BBB1B51E107C0AA1FBB1FA6171C
:10035000B70710F0A61BB70B881F991F5A95A9F76E
:0E03600080959095BC01CD010895F894FFCFD3
:00000001FF
