:100000000C945A000C9464000C9464000C946400EA
:100010000C9464000C9464000C9464000C946400D0
:100020000C9464000C9464000C9464000C946400C0
:100030000C9464000C9464000C9464000C946400B0
:100040000C9464000C9466000C9464000C9464009E
:100050000C9464000C9464000C9464000C94640090
:100060000C9464000C9464000C9464000C94640080
:100070000C9464000C9464000C9464000C94640070
:100080000C9464000C9464000C9464000C94640060
:100090000C9464000C9464000C9464000C94640050
:1000A0000C9464000C9464000C9464000C94640040
:1000B0000C94640011241FBECFEFD8E0DEBFCDBF8B
:1000C0000E947A000C9492000C9400001F920F92F0
:1000D0000FB60F9211248F939F938EB590E090935B
:1000E000A9008093A8009F918F910F900FBE0F9051
:1000F0001F9018957894699A519A81E88093A0008E
:1001000083E08093A10081E090E09093A900809328
:10011000A800249A239A259A229A80EC8CBD80E02C
:0801200090E00895F894FFCF70
:00000001FF
